:020000040800F2
:1000000078060020D5000008C7090008C5090008C7
:1000100000000000000000000000000000000000E0
:10002000000000000000000000000000CB090008F4
:100030000000000000000000C9090008CD09000808
:10004000E7000008E7000008E7000008E7000008F4
:10005000E7000008E7000008E7000008E7000008E4
:10006000E7000008E7000008E7000008E7000008D4
:10007000E7000008E7000008E7000008E7000008C4
:10008000E7000008E7000008E7000008E7000008B4
:10009000E7000008E7000008E7000008E7000008A4
:1000A000E7000008E7000008E7000008E700000894
:1000B000E7000008E7000008E7000008ED0C000872
:1000C0000348854600F058F800480047F10D000845
:1000D000780600200448804704480047FEE7FEE712
:1000E000FEE7FEE7FEE7FEE7D5090008C1000008CD
:1000F00003460B439B0703D009E008C9121F08C041
:10010000042AFAD203E00B780370401C491C521EEB
:10011000F9D27047D2B201E00270401C491EFBD2F6
:1001200070470022F6E710B513460A460446194602
:10013000FFF7F0FF204610BD70B50446002903D03C
:1001400000202022012310E0002801D00020C0431D
:10015000C046C0460DE02546D5408D4205D30D462C
:100160009540641B1D46954040191546521E002DB2
:10017000F1DC214670BD0000064C0125064E05E06D
:10018000E36807CC2B430C3C98471034B442F7D3B8
:10019000FFF79AFFD41A0008F41A000830B58C183B
:1001A0000278401C13071B0F01D10378401C120971
:1001B00006D10278401C03E005780D70401C491CF4
:1001C0005B1EF9D101E00B70491C521EFBD1A1420C
:1001D000E6D3002030BD0000B0B5044600F00CF8B6
:1001E0000546601C02D021480068041900F004F89C
:1001F000401BA042FAD3B0BD054800687047C04616
:100200001A48006802490A68101808607047C0461A
:100210007004002080B5032000F008F8002801D009
:10022000012080BD00F024F8002080BDB0B5054657
:100230000E4801680124002916D07D20C000FFF778
:100240007BFF014681480068FFF776FF00F0A0FBC6
:10025000032D09D8002807D10024E043294622466F
:1002600000F01CF87A4805602046B0BD140000205C
:1002700082B0094841680122114341604168114040
:1002800001910199110702680A4302600068084061
:100290000090009802B070473C100240002805D43E
:1002A000032203469343094A9A1803E00C220240B2
:1002B000074BD2188007C00E8901C9B28140FF23C5
:1002C00083401068984308431060704700E400E0E2
:1002D00014ED00E0F0B583B00126002800D1ABE0BA
:1002E0000D4601960290564800680321009108408F
:1002F000A84214D2524908680326B0432843086034
:10030000504CFFF779FF07464D4800683040A8423F
:1003100005D0FFF771FFC01BA042F5D98CE0029F0A
:1003200038688107714B0DD5410704D507210903B2
:100330001A680A431A600F2109021A688A43B968C9
:1003400011431960C00719D13D48006803263040A9
:10035000A8422AD93A490868B04328430860394C72
:10036000FFF74AFF0746364800683040A8421CD0D5
:10037000FFF742FFC01BA042F5D95DE07868042872
:100380003DD8810001A251588F46C046A103000804
:10039000EB030008F5030008FF030008030400084E
:1003A00019460839096849052DE0029A1078400776
:1003B00007D5072000034D4B19688143D0680843D7
:1003C000186000F047F84949096889093C220A4049
:1003D0001D4989581F220A40D0401C4908601C480A
:1003E0000068FFF723FF064626E01946083909682A
:1003F000890308E0194608390968890103E0996D05
:1004000000E0596D8907019E16D5196807229143AE
:10041000014319600B4CFFF7EFFE064633480068B6
:10042000382101407868C00081428DD0FFF7E4FE9A
:10043000801BA042F2D9009E304603B0F0BDC046FA
:100440000020024088130000D4190008000000209A
:100450001800002010B5254908688006400F07D015
:10046000086838231840224A082811D1104610BDC8
:10047000081F0839096800680004400F042800D9E3
:10048000002080001F4A10588904490FC84010BD41
:100490000868184010280DD14868032303404868B5
:1004A0000C24044013A00059022B0FD0032B19D1A8
:1004B000504310BD0A681A400120C003202A04D00E
:1004C00009681940182900D0002010BD091F0968CB
:1004D0000904490F042900D900218900094A51580B
:1004E000484310BD0849484310BDC04608100240AB
:1004F00000366E0102000000030000000200000050
:1005000002000000C019000800093D00F0B585B0E8
:100510000127002800D1E2E1029703900078C0078C
:10052000F94E1ED10398007880074AD403980078CA
:10053000000776D403980078400700D4A2E1B068A1
:1005400038210140202900D0BEE0F06D800700D4A2
:1005500095E10398C068002800D090E100200127B1
:100560008EE1B068F16803273A468A43382101409A
:1005700010204840821850425041082961D000287C
:100580005FD103984268002A07D08068002800D114
:1005900039E13169B94301433161052000048242E8
:1005A000019200D103E1012001048A4200D104E15B
:1005B000EE49491E32680A4032608104306888433F
:1005C000FDE0B0683824044010206040F168032743
:1005D000394002224A40811848424841002C3BD011
:1005E000002839D13068039A5169002900D1CCE044
:1005F0000721C9028843916901433160012001024A
:1006000032680A4332608402FFF7F6FD054630681F
:10061000204200D0EFE0FFF7EFFD401B0228F6D9A3
:100620005DE1B06838210140182936D1306E80076D
:1006300000D47FE70398006A002800D07AE7029F81
:100640004DE13068800300D46CE7039840680028CF
:1006500000D067E7029F42E101970127306840051B
:10066000039B03D55869002800D138E10094324635
:10067000BE025068BD490140D86908431446506025
:10068000FFF7BAFD05462068304242D1FFF7B4FDBE
:10069000401B0228F7D9019F21E1306E0399096AB6
:1006A000002900D1B1E0012108433066FFF7A4FD25
:1006B0000546306E800700D53CE7FFF79DFD401BE7
:1006C00003270228F5D90AE101273907F06B084012
:1006D000019006D1F06B0843F063F06B0840049082
:1006E00004980091A54C2068C00533D43E022068D0
:1006F00030432060FFF780FD05462068304229D155
:10070000FFF77AFD401B0228F7D900200327964EF9
:10071000B6E000980028264614D10720C0023168B0
:1007200081430398806908433060FFF793FEB16806
:1007300089093C220A408E4989581F220A40D0402C
:100740008C4908608C480068FFF770FD002800D0D5
:10075000C5E0EBE60398C468002C834E0AD000691C
:100760008103890F00D178040321090432698A4387
:1007700002433261052C59D0012C5BD0F06DB84397
:10078000F065F06D0421884356E001210A02904390
:1007900030608C02FFF730FD05463068204200D102
:1007A000C4E6FFF729FD401B0228F6D997E0012097
:1007B000810432680A4332600104306808433060C3
:1007C00001204404FFF718FD0546019800280ED0CB
:1007D0003068204200D0A5E6FFF70EFD401BC82878
:1007E000F6D97CE0FFF708FD401BC82877D83068B1
:1007F0002042F7D196E670685C4901400398C069D1
:100800000843706092E6029F69E0012188433066E8
:10081000FFF7F2FC0546306E800700D48AE6FFF74A
:10082000EBFC401B03270228F5D958E0F06D0421AA
:100830000143F165F06D3843F065FFF7DDFC0546D7
:10084000002C09D04E4CF06D800711D4FFF7D4FC7A
:10085000401BA042F7D908E0494CF06D800707D54E
:10086000FFF7CAFC401BA042F7D90020032707E08E
:100870000198002803D1F06B00998843F0630120B0
:1008800000282CD00398406A002827D0B16838226D
:100890000A40102A03D1012818D1029F1FE001232A
:1008A0001A0631689143316002281BD102920193EC
:1008B0005C06FFF7A1FC05463068204226D0FFF712
:1008C0009BFC401B03270228F6D908E0F0680321AF
:1008D00001400398806A8142029F00D10027F8B24C
:1008E00005B0F0BDF0680327B843F0605D06FFF780
:1008F00083FC044630682842F0D0FFF77DFC001BE3
:100900000228F7D9EBE7C046001002400398816A3D
:10091000C06A02290DD103220346934319A2D2587B
:100920007368DB0A1C251D40184B5B599342019FDD
:10093000D5D3F2680327BA430A43F260F1680C2268
:1009400091430143F1603068029908433060FFF73A
:1009500053FC054630682042C0D1FFF74DFC401BD8
:100960000228F7D9BBE7C046001002400000FFFF95
:10097000D41900080000002018000020007000407A
:1009800088130000001BB7000024F400141A0008AC
:10099000401E010E01D0012070470749074A5060F0
:1009A000074803680B40032189075918016000209C
:1009B0009060072111607047FFFFFF0010E000E02A
:1009C00020ED00E0FEE770477047704780B5FFF705
:1009D00017FC80BD7F204106084802680A4008498C
:1009E00009681143074A126812040A4301214B03A4
:1009F00013430360C80604490860704704100240AE
:100A00000832FF1F4833FF1F08ED00E0F0B587B044
:100A1000B24E30460C38007831460A390D783146EE
:100A20000B3909780191B11E0591097800914007B1
:100A300011D50320C101AA4C2046FFF772FB4020CC
:100A4000606000F00BFDB01F01210170F01F00215C
:100A50000170A4480170B01F07782F40F807A24C1E
:100A600004D13546002F00D088E0D9E00021059858
:100A700001703278500727D4D00601D5802030701D
:100A800097480378002B05D003783446103C237038
:100A9000954C0170934D2B78062B6AD89B0002A4CD
:100AA000E358914C9F46C046250B0008510B0008A7
:100AB000730B0008D70A0008C50A0008730B00086A
:100AC000C50A0008297051E03078FB2202403270DC
:100AD000844801704DE0D1074BD080494A78002A04
:100AE0000AD0D021415813467F4C24780C70491C01
:100AF0005B1E1C047C4CF7D10346C83399688918E7
:100B00009960196989181961C823C05A904200D8A0
:100B1000DAE0002000F074FC4820704908700420DE
:100B2000287026E0D10724D06C494978082920D1C3
:100B300001462031082223780B70491C521E1304F1
:100B4000F9D1C18C0029654A00D1C1E04021C0E043
:100B5000426B836B048DA24203D919198163111B67
:100B600001E09A188263604C4163816B802000F041
:100B700015FCFE200740594D002F51D00126039649
:100B80000BE0B96B80203043C0B200F007FC069F39
:100B900004988743761C002F42D0F2B2039890400D
:100BA0003842F7D004900697059806706879400798
:100BB00003D56879FB2101406971142002925043EA
:100BC00047490F183A4638323D6B7C6B3946303115
:100BD0003B8D384634309C4206D9ED180D601168C3
:100BE000C9181160E21A05E02D190D601168091984
:100BF000116000220260002A384D3B4CC1D09A425D
:100C000000D31A46002A08D002988000396B0B786E
:100C10002354491C521E1304F9D101206871B6E710
:100C2000E81F03780198034049D00126049608E0A4
:100C3000069800F0E5FB019BBB43F44D761C002BAE
:100C40003DD0F0B2049F069087401F42F6D0059831
:100C50000670687AC007EFD00193142006994843C4
:100C60001F490B181846D0300290C833E7488089D6
:100C70000390002820460AD006998C0002990D683E
:100C8000039A015D29706D1C521E1104F9D1DF4DCC
:100C9000697AFE220A406A72029A1168039D491914
:100CA0001160196949191961DA68541BDC601B88E5
:100CB0009D420446019BBBD3AA42BDD1B8E705982B
:100CC0000099017007B0F0BD4020D049087050E78E
:100CD00048211170203000F007FB4AE7105C00400B
:100CE0002002002068040020205C004080B5FFF74F
:100CF0008DFE80BDF0B583B015460E460179427970
:100D00001202571841780024222911D0212920D01D
:100D100020292BD18179C07900024218316801ADB8
:100D20002846FFF7E5F9F8B2294600F02DF91EE054
:100D30008178C0780002461801213140FDB2284672
:100D400000F01CF9022030404108284600F01DF94F
:100D50000DE0F8B201AF394600F0F6F8306807262A
:100D600039463246FFF7C4F92E6000E0E4432046DE
:100D700003B0F0BDB0B583480078002811D0094C0D
:100D800020460A3076216122FFF7C4F9694D01201F
:100D9000287081208022214600F032FA287800282D
:100DA000FCD1B0BD1C00002080B50B4800F0F8F865
:100DB0000A4800F0D7F800F099F8094800F0D2F896
:100DC00000F094F8074800F07FF8074800F07CF83E
:100DD00000F06CFB80BDC046341A0008A003002060
:100DE000C00300200C000020040000207047000019
:100DF00090B0FFF70FFA04AC30212046FFF791F9CD
:100E000000250A950120010209910F2104910C95FA
:100E1000059504210F9102260E960D9607950395D0
:100E20000295019500951B4909681B4A0A408003F9
:100E300010180B902046FFF769FB002800D0FEE752
:100E400003950295019607200090684601242146EB
:100E5000FFF740FA002800D0FEE710484168214320
:100E600041604168214004910499E10502680A4308
:100E700002600068084004900498FFF795FFE007BF
:100E8000074908607D20C000FFF7A6F9FFF772FF51
:100E9000F8E7C0461032FF1FFF1F00003C10024061
:100EA00000E100E080B500F00DF8054900208873EE
:100EB000087004220A7201228A72487280BDC046FC
:100EC000005C004070470000002142565106C90DE9
:100ED000374B5918002A03D44F229200891802E098
:100EE000472292008918406808607047B0B5AF216A
:100EF00049002F4A535C0377054D2C462D68002D81
:100F0000FBD15B1C5354206000210160B0BDC04682
:100F10006C04002080B5002908D03F20014005D195
:100F2000812000210A4600F06BF980BD01480021B4
:100F3000017080BD0502002080B502201749802283
:100F400000F02CF980BDC0460020C8701E228A70B7
:100F500084224A7080220A7008228A7148710871BE
:100F60007047000003490022034B43608260C26067
:100F700001617047ED0D0008F50C00080148017093
:100F80007047C046040200207047704780B50220B9
:100F90000249802200F002F980BDC046E80300202B
:100FA000AF214900024A0023535490617047C04664
:100FB0009C00002010B57F240440C94B991E0A787C
:100FC0000C7040B200280AD4002C13D0587A9F2409
:100FD00004405C72587A802404435C7213E0002C55
:100FE0000DD05879CF2404405C71587940240443D3
:100FF0005C7108E01878FB2404401C7003E018784A
:10100000FB2404401C700A70002010BD105C0040DE
:101010000020704710B57F240440784A137814707C
:1010200007D044B2002C06DA0420002C06DB0B2487
:1010300005E0002007E00520002CF8DA0724145D05
:10104000C4400120204008701370002010BDC0462D
:10105000F0B582B007787F263D46354006D0014680
:101060000020072D12D9C04302B0F0BDC8209B4913
:1010700040220A520A850A46C83201231371002011
:10108000907028310B71887002B0F0BD5B4A137804
:10109000019315704C887FB2002F15D414276F432D
:1010A0008E4DED19C827EC5349784F1E7B427B418A
:1010B0009B019372C83501232B71A970D17AC9079E
:1010C0000ED06F21C9430CE001230093AB40171FE2
:1010D0003E781E433E70497801291ED020271DE02E
:1010E000F143D17211460C31082C00D80824641E3B
:1010F000E508072D00D307256D1C402C2E4600D394
:1011000001260E70F1494E68402C01D2EB00F61812
:101110004E600199117002B0F0BD602797711423E1
:101120006B43EA4DEB181C852833009D1D719970A7
:10113000D179890701D5482100E04021D1711146BC
:101140000831082CD2D9D2E710B57F240440644B73
:10115000991E0A780C7040B2002806D4002C0BD0DF
:10116000587A202404435C7215E0002C0CD0587986
:10117000102404435C710EE05A4807240470187868
:10118000602404431C7006E0564807240470187855
:10119000602404431C700A70002010BDF0B50346A3
:1011A0000124E043002903D1002A01D0401CF0BDF6
:1011B0007F252B4014255D43C44E7719CC257D5DDA
:1011C000002D19D00D4D2E782B70C8370020B96036
:1011D000FA603861002A06D0002B09D09C40691FB4
:1011E0000A78224306E0002B05D13E49002201E0A7
:1011F0003C4903220A702E70F0BDC0460E5C0040D0
:10120000F0B585B003460226F043002904D1002A38
:1012100002D0801C05B0F0BD7F24234014245C4321
:10122000AA4D2D192C4628342779002F28D0049058
:1012300003962B4FBE1E307833707F79FF073ED167
:101240000290002029636A63A863002A04901AD0E0
:1012500001962588954200D315460095002D09D0AA
:101260001F4A10329D00009F0E785655491C7F1E64
:101270003E04F9D1002B0DD00121194A51711CE017
:10128000401C05B0F0BD002B039B0CD00121144A7B
:10129000517113E0134901220A7021880098884295
:1012A00008D20A2107E08949C98C00290C4C0AD0D0
:1012B000062109E003990A4A1170019E02983070D4
:1012C000049805B0F0BD0421064A11701178012977
:1012D00002D10A212170F1E72370EFE720020020FC
:1012E000105C00406804002070B501794279120258
:1012F00051188279C3791B029A1812045118827806
:10130000C37804784078EE4E000200191B029A1848
:101310001204101803C640B2083EF288FF210231C1
:101320008A4205D3002803D48020FFF70DFF70BD4B
:101330000021317534461C34B460F2603261002AF9
:1013400006D0002804D400202146FFF727FF70BDF7
:1013500000F0BEF80028E7D03569F088854200D358
:101360000546F560B168880708D001200002854273
:1013700012D820462A46FEF7BBFEB460B168802032
:101380002A46FFF73DFF3069F188884204D23F21A9
:10139000084001D10120307570BDC04680B580285D
:1013A00011D1C748826853188360C268521AC2605C
:1013B00014D1017D002916D00021017580200A4634
:1013C000FFF71EFF80BD4206D20DBD4B9A18472382
:1013D0009B00D258002A00D0904780BD802019463B
:1013E000FFF70EFF80BDC1880029F6D000214056CE
:1013F0000028F2D5002001460246FFF7CFFE80BD4F
:1014000080B500280AD04206D20DAD4B9A184F2362
:101410009B00D258002A00D0904780BD0029FCD004
:10142000A748826853188360C268521AC2600CD100
:1014300001461C31816000F04BF800280AD0802062
:1014400000210A46FFF7DCFE80BD00201946FFF7A9
:10145000A5FE80BD8020FFF777FE80BDB0B582B0CD
:101460000024204600F026F85720800094490C52B2
:101470000C48019001AD2846FFF7EAFD2C70284684
:10148000FFF7E6FD0848046800E02468002C06D059
:101490002269002AF9D0012000219047F5E702B027
:1014A000B0BDC046800040006C04002080B5FFF74E
:1014B000F9FC80BD002802D1034900220A700349CB
:1014C000087000207047C046005C004020020020E9
:1014D000F0B589B07A4C2078602101400025402980
:1014E0002DD0202940D0002900D019E20323184034
:1014F0000025EE43022800D1A3E0012800D1B9E085
:10150000002800D007E26078092800D900E262884C
:101510000126400078448088400087440900F70194
:10152000F901F701F901FA00A701F901FE00040130
:10153000A06800210170A06841700225E6E16148C1
:101540000068002834D0417962788A4242D1A1886B
:10155000052900D1C3E0042900D0E1E18168A16040
:10156000808920610125DBE1032108400026F14349
:10157000012847D002285FD10591534F012503E090
:101580002946002900D1A2E03F68002F00D19DE04C
:10159000BB68002BF4D0397F62798A422946F0D1AA
:1015A0002146083122461032204698473146E8E766
:1015B000F748006800280DD0817962788A4209D105
:1015C000A188072900D0ABE10168A1608088206173
:1015D0000125A5E1EF480668002E00D1A0E1012712
:1015E00003E03668002E00D19AE1F368002BF8D0B2
:1015F0002146083122461032204698470028F0D173
:101600003D468DE10F46E34E012502E029460029C3
:101610005DD03668002E5ED07368002BF6D021793D
:10162000327F8A422946F2D12146083122461032C1
:10163000204698470021EAE70846002849DB0125B3
:101640006EE1FF205E30205C002800D163E1A088BD
:101650006178032949D0012954D0002900D05AE1EA
:10166000C0B208A9FFF7D6FCA06808990170A0686D
:10167000002621E0FF2738465E30205C002800D19C
:1016800049E161780B2900D945E1A08865884900C6
:101690007944898849008F440B003E013E013E0198
:1016A0003E013E018D003E013E013E01A000A6002C
:1016B000A06800260670A0684670022020612AE11A
:1016C0009C000020E00300206C0400200598002806
:1016D000B5DA002524E138460028FADBAFE70169D6
:1016E000A160808A206101251AE16688002E02D15E
:1016F000C0B2FFF729FD00202061002E00D10AE1D1
:10170000C64308E16188002900D1E6E0002020619D
:1017100001E1D0B2FFF7CEFEF8E0FF205E302018E6
:10172000A0600125F2E0A0690178002900D1C2E0A3
:101730000396FF2500270495029207E0F0780490B5
:1017400031787018715C002900D19DE00646407820
:1017500005280BD00428F1D00228F1D1D0B2757938
:101760008542039800D038460746E9E7D0B2059590
:10177000E9B2814216D10498002813D1B17806A8A5
:101780000170F17819404170317972791202511863
:10179000814A114041801D46FFF75AFC2B464742C3
:1017A000474104E0B0781D46FFF732FC2B46029A11
:1017B000059DC5E7290A222900D0ACE075490968D2
:1017C000002900D1A7E0C2B20B7F9342F7D148694C
:1017D0008969A060216100269DE0A068002606704E
:1017E0000120206197E00395A1690A78002A79D049
:1017F000C0B2059000250497039A019305E00546C1
:1018000030783118305C00286DD00E4648780528B5
:101810000ED00428F4D1D0B2F17804918142304640
:1018200000D02846B77805998F42E8D02846E6E7E9
:1018300005988742E4D1D0B20499C9B281420FD150
:10184000B17807A80170F178194041703179727947
:1018500012025118504A11404180FFF7F9FB02E093
:10186000B078FFF7D5FB019B039AC9E7D1B2100A04
:10187000032828D1EE2926D144480068002852D0F8
:101880000168A160057941E0F807039E13D0572055
:10189000800001212154FF205E3022543D4805681C
:1018A00000E02D68002D2ED02A69002AF9D00720EB
:1018B00000219047F5E75720800000252554FF20A0
:1018C0005E30225422E00F282FD1344800680028CF
:1018D00029D00168A160456818E0C0B2FFF76AFB33
:1018E000002618E000252B48066800E03668002E28
:1018F00006D03269002AF9D0082029469047F5E73A
:101900000026266107E0FFF741FB002525613546EB
:1019100001202840461E002E01DA002500E00125A6
:10192000284609B0F0BD0025F2E71646520A002508
:10193000022AEDD87F225202164001239A029642D3
:10194000E6D00393A26915786B426B41002D0FD04E
:10195000002606E0575D7B427B415219002F3D4631
:1019600006D05778B842F5D18E4201D0761CF1E707
:10197000039E5E40D907CAD1A260022804D19078A4
:10198000D17809020D18C1E71578BFE7E003002000
:10199000E40300206C040020FF0700000002002088
:1019A00002E008C8121F08C1002AFAD17047704728
:1019B000002001E001C1121F002AFBD17047000086
:1019C00000093D0000127A000024F4004086510115
:1019D00000366E0100000000000000000000000062
:1019E00000000000000000000000000000000000F7
:1019F00000000000010000000200000003000000E1
:101A000004000000060000000700000008000000BD
:101A10000900000000093D0000127A000024F400D3
:101A20004086510100366E0100093D0000093D006D
:101A300000093D0012010002EF020140FFFFFFFF1D
:101A400000010102030109024B000201008032087B
:101A50000B0002020201000904000001020201025F
:101A600005240010010524010001042402020524BC
:101A70000600010705830308000A09040100020AA1
:101A80000000000705020240000007058102400037
:101A900000040309040A0350005500590041001CCA
:101AA000035000550059004100200043004400430A
:101AB000002000440045004D004F00160332003066
:101AC000003200320031003200330034003500367D
:101AD00000000000001B00080000002000020000C1
:101AE0009C010008401B0008000200207804000050
:101AF000B019000800000000000000000000000015
:101B00004600127A008146150F00080246390F0080
:101B1000080142040BFF313233343536373839305F
:101B200001DD0000000000000000000000000000D7
:101B300000000000000000000000000000000000A5
:04000005080000C12E
:00000001FF
